:100000000C949B040C94C3040C94C3040C94C3047C
:100010000C94C3040C94C3040C94C3040C94C30444
:100020000C94C3040C94C3040C9402080C9474083C
:100030000C94C3040C94C3040C94C3040C94C30424
:100040000C94C3040C94C3040C94C3040C94C30414
:100050000C94C3040C94C3040C94C3040C94F513C3
:100060000C94C3040C94C3040C94C3040C94C304F4
:100070000C94C3040C94C3040C94C3040C94C304E4
:100080000C94600B0C94C3040C94C3040C94C30430
:100090000C94C3040C94C3040C94C3040C94C304C4
:1000A0000C94C3040C94C3040C94C30400B000006B
:1000B000A170E150964F26900F1D070C0096690025
:1000C0004AE44A0048444000806810000F99FB8FC2
:1000D0009DBDBBFB77D4D4DF1F1A1AFE7F5D5DFF89
:1000E000805A0000A0A4AA0010BA3400FF5953F3AC
:1000F000FF9B9B9EFFB9B996FF9595D19FF4940FF6
:10010000FC295F91FF1838F8FF9294FFFF95D5F70F
:10011000BFB5DDD7F18F81F1F788C8F779C6467989
:1001200009FD9B090196F80082818280507162006E
:100130007756560076763700A2B77301077206002D
:100140007827500073347400775176007F55F7009C
:1001500047711000324772007364730015A2750076
:1001600061679400009F6060F4F2F6F2080B0002F1
:10017000020201000904000001020200000524003F
:1001800010010524010101042402060524060001D2
:100190000705810310004009040100020A00000065
:1001A0000705020240000007058302400000040327
:1001B000090412010002EF020140412336800001D0
:1001C0000102030141726475696E6F204C4C43005B
:1001D00041726475626F79002863292032303138AA
:1001E00020006D617873636F72646140676D61694F
:1001F0006C2E636F6D0053636F7264616D61676C29
:10020000696120004D6178200020322E30006F7926
:10021000004200686F726473004300202D20003A92
:1002200020004B6579200000000200040005000753
:100230000009000B00630000000000000000000047
:10024000000000020003000500070008000A006328
:100250000000000000000000000000000002000399
:10026000000500070009000A00630000000000000C
:100270000000000000000001000300050007000866
:10028000000A006300000000000000000000000001
:1002900000020004000600070009000B00630000D4
:1002A0000000000000000000000000020004000543
:1002B00000070009000A00630000000000000000C1
:1002C0000000000000020003000500070008000A0B
:1002D00000630000000000000000000000000001BA
:1002E0000003000500060009000B00630000000089
:1002F00000000000000000000001000300050007EE
:100300000009000B00630000000000000000000076
:10031000000000010003000500070008000B006357
:1003200000000000000000000000000000020003C8
:10033000000500070009000B00630000000000003A
:100340000000000000000002000300050007000894
:10035000000B00630000000000000000000000002F
:1003600000020004000500070008000B0063000005
:100370000000000000000000000000010004000573
:1003800000060009000A00630000000000000000F1
:100390000000000000030004000600070009000A36
:1003A00000630000000000000000000000000001E9
:1003B000000400060008000A000B006300000000B3
:1003C00000000000000000536900536962004C61A6
:1003D000004C616200536F6C00536F620046610015
:1003E0004D69004D69620052650052656200446FBC
:1003F0000042004262004100416200470047620043
:10040000460045004562004400446200430000008D
:100410000000003E5B4F5B3E3E6B4F6B3E1C3E7CE4
:100420003E1C183C7E3C181C577D571C1C5E7F5E92
:100430001C00183C1800FFE7C3E7FF001824180051
:10044000FFE7DBE7FF30483A060E262979292640E8
:100450007F050507407F05253F5A3CE73C5A7F3E14
:100460001C1C08081C1C3E7F14227F22145F5F00A6
:100470005F5F06097F017F006689956A6060606042
:100480006094A2FFA29408047E040810207E20102D
:1004900008082A1C08081C2A08081E101010100C36
:1004A0001E0C1E0C30383E3830060E3E0E06000084
:1004B00000000000005F00000007000700147F1428
:1004C0007F14242A7F2A1223130864623649562097
:1004D000500008070300001C2241000041221C00BC
:1004E0002A1C7F1C2A08083E08080080703000087B
:1004F00008080808000060600020100804023E514F
:1005000049453E00427F40007249494946214149E0
:100510004D331814127F1027454545393C4A494947
:100520003141211109073649494936464949291EB1
:1005300000001400000040340000000814224114A0
:1005400014141414004122140802015909063E41F2
:100550005D594E7C1211127C7F494949363E41411A
:1005600041227F4141413E7F494949417F09090973
:10057000013E414151737F0808087F00417F4100DF
:100580002040413F017F081422417F404040407F8E
:10059000021C027F7F0408107F3E4141413E7F09DB
:1005A0000909063E4151215E7F091929462649491C
:1005B000493203017F01033F4040403F1F2040205C
:1005C0001F3F4038403F631408146303047804035A
:1005D0006159494D43007F41414102040810200008
:1005E0004141417F04020102044040404040000379
:1005F00007080020545478407F2844443838444445
:100600004428384444287F385454541800087E093C
:100610000218A4A49C787F0804047800447D40005C
:100620002040403D007F1028440000417F40007C76
:10063000047804787C080404783844444438FC186E
:1006400024241818242418FC7C0804040848545452
:10065000542404043F44243C4040207C1C2040207F
:100660001C3C4030403C44281028444C9090907CE6
:100670004464544C440008364100000077000000F8
:100680004136080002010204023C2623263C1EA13A
:10069000A161123A4040207A385454555921555599
:1006A000794121545478412155547840205455794A
:1006B000400C1E52721239555555593954545459DB
:1006C00039555454580000457C410002457D420094
:1006D00001457C40F0292429F0F0282528F07C549D
:1006E0005545002054547C547C0A097F49324949BD
:1006F00049323248484832324A4848303A4141212A
:100700007A3A42402078009DA0A07D394444443983
:100710003D4040403D3C24FF2424487E4943662B15
:100720002FFC2F2BFF0929F620C0887E09032054B7
:100730005479410000447D413048484A32384040B5
:10074000227A007A0A0A727D0D19317D2629292F15
:1007500028262929292630484D402038080808082D
:1007600008080808382F10C8ACBA2F102834FA002F
:10077000007B000008142A142222142A1408950071
:10078000220095AA005500AAAA55AA55AA00000061
:10079000FF00101010FF00141414FF001010FF00D1
:1007A000FF1010F010F0141414FC001414F700FFE4
:1007B0000000FF00FF1414F404FC141417101F10A1
:1007C000101F101F1414141F00101010F000000050
:1007D000001F101010101F10101010F0100000005B
:1007E000FF101010101010101010FF10000000FF6C
:1007F000140000FF00FF00001F10170000FC04F4AD
:1008000014141710171414F404F40000FF00F71464
:10081000141414141414F700F714141417141010EB
:100820001F101F141414F4141010F010F000001F07
:10083000101F0000001F14000000FC140000F01046
:10084000F01010FF10FF141414FF141010101F00EC
:10085000000000F010FFFFFFFFFFF0F0F0F0F0FFEE
:10086000FFFF0000000000FFFF0F0F0F0F0F3844C5
:100870004438447C2A2A3E147E02020606027E0286
:100880007E0263554941633844443C04407E201E47
:100890002006027E020299A5E7A5991C2A492A1C76
:1008A0004C7201724C304A4D4D303048784830BC63
:1008B000625A463D3E494949007E0101017E2A2A8D
:1008C0002A2A2A44445F444440514A444040444A0E
:1008D00051400000FF0103E080FF000008086B6B3F
:1008E000083612362436060F090F060000181800C5
:1008F00000001010003040FF0101001F01011E0028
:10090000191D1712003C3C3C3C0000000000D5F0D3
:100910008D14A1C881CFD9F1AF20000601150126A1
:100920000137014A015D01720188019F01B801D2BE
:1009300001EE0100021811241FBECFEFDAE0DEBF86
:10094000CDBF11E0A0E0B1E0E4E9F6E302C005901C
:100950000D92AE38B107D9F726E0AEE8B1E001C09C
:100960001D92AA36B207E1F714E0CBE9D4E004C047
:100970002197FE010E944619CA39D107C9F70E9482
:10098000FD140C94481B0C9400004091960150916A
:100990009701209194013091950142175307B4F4C7
:1009A0009091E8009570E1F39091E80092FD19C0F4
:1009B0008093F100809196019091970101968F7339
:1009C0009927892B19F48EEF8093E8008091960186
:1009D000909197010196909397018093960181E001
:1009E000089580E00895DF92EF92FF920F931F9396
:1009F000CF93DF93D82EF92EE42E062F10E0C801F6
:100A00000196880F0E94C50483E00E94C504CD2D85
:100A1000DF2D0C0F1D1FC017D10789F0E7FE03C0A3
:100A2000FE01849101C088810E94C504F82E80E0F7
:100A30000E94C5048F2121968111EDCF01C081E074
:100A4000DF91CF911F910F91FF90EF90DF9008956C
:100A5000DF92EF92FF920F931F93CF93DF93D82EE5
:100A60008A017B01E40EF51EEB01CE15DF0571F066
:100A7000D7FE03C0FE01849101C088810E94C50495
:100A800021968111F2CF8FEF9FEF01C0C801DF9156
:100A9000CF911F910F91FF90EF90DF9008956150DB
:100AA00030F02091F100FC0120830196F8CF2898C6
:100AB00084E68093C3010895CF92DF92EF92FF9274
:100AC0000F931F93CF93DF936C017A018B01C0E0EA
:100AD000D0E0CE15DF0581F0D8016D918D01D601F2
:100AE000ED91FC910190F081E02DC6010995892BD3
:100AF00011F02196EECF7E01C701DF91CF911F91BA
:100B00000F91FF90EF90DF90CF900895CF93DF93F8
:100B10001F92CDB7DEB76983DC01ED91FC910280B5
:100B2000F381E02D41E050E0BE016F5F7F4F0995FA
:100B30000F90DF91CF91089583E08093E900809139
:100B4000F200882319F08AE38093E8000895FC01FD
:100B50008485958597FD0BC09FB7F89482E08093BC
:100B6000E9008091F2009FBF90E0019608959FB741
:100B7000F89482E08093E9008091F2009FBF90E0BA
:100B800008954F925F926F927F928F929F92AF9251
:100B9000BF92CF92DF92EF92FF920F931F93CF936A
:100BA000DF936C013B01102F38E0832E912C7A01EA
:100BB000FF24270193E0559447949A95E1F7CA01E1
:100BC00087709927892B41F5D6011796CD91DC9135
:100BD0001897C3019927BE010E941E194C9EF0016F
:100BE0004D9EF00D5C9EF00D11249927D6011596AF
:100BF0004D915C9116978E0F9F1FFA01E80FF91F18
:100C0000111106C0C22FC09520812C23208327C03C
:100C1000C081C22BC08323C0C22FD0E04770A42E56
:100C2000B12C720183E0EE0CFF1C8A95E1F79E0166
:100C300001C0220F4A95EAF7012FA701B301C601AF
:100C40000E94C105C4018A199B0902C0D595C795A8
:100C50008A95E2F72C2FA701485F5F4FA8CFDF915D
:100C6000CF911F910F91FF90EF90DF90CF90BF90A9
:100C7000AF909F908F907F906F905F904F9008956E
:100C80005F926F927F928F929F92AF92BF92CF921C
:100C9000DF92EF92FF920F931F93CF93DF93EC01BC
:100CA0006A3061F48D859E859C878B872C898F8522
:100CB0009889820F911D988B8F8777C0CB84DC84B5
:100CC000693031F489E0C80ED11CDC86CB866DC05A
:100CD0009DEFC9169FEFD90654F48B8990E00496D6
:100CE0002B853C85820F931F9C878B875EC08F81ED
:100CF0009885C816D9068CF7EF84F8888DEFE8162A
:100D00008FEFF80654F389859A85E816F9062CF7D3
:100D1000603208F46FE780EE860F9FE9960F9A31F4
:100D200018F49FEFE91AF90A8C3011F08B3119F49D
:100D30009FEFE91AF90A869594E0899F50011124E2
:100D4000360184E0680E711C4601162F1170F40103
:100D5000EC19FD09EA0DFB1DE455FF4F84911111BB
:100D600003C08F70582E04C0582E52948FE0582222
:100D70008C81882361F001E089899A89892B09F0A7
:100D800000E02FE0A701B401CE010E94C10509894E
:100D9000252DA701B401CE010E94C1059FEF891A3C
:100DA000990A6814790499F698CF81E090E0DF9170
:100DB000CF911F910F91FF90EF90DF90CF90BF9058
:100DC000AF909F908F907F906F905F9008958091EB
:100DD000A301E091A101F091A201882349F0CF0184
:100DE00002969093A2018093A10185919491089518
:100DF000CF0102969093A2018093A10180819181FD
:100E000008958091A50108950F931F93CF93DF93C9
:100E10001F92CDB7DEB782E0898342E450E06CE6F2
:100E200071E080E80E9428050E949B13DC01129665
:100E30000D911C9113970115110589F0D801ED91C1
:100E4000FC910280F381E02DBE016F5F7F4FC801EE
:100E5000099597FD04C0F80100851185ECCF8981C3
:100E60000F90DF91CF911F910F9108958F929F92D4
:100E7000AF92BF92CF92DF92EF92FF920F931F93A8
:100E8000CF93DF936C017B018A0180910B01882352
:100E900009F45CC08091C401882309F457C0809193
:100EA0009B0180FF05C08091E00082608093E0009C
:100EB000E801B12C8AEFA82E93E0892E2AE3922E26
:100EC000209711F4BB20D9F10E948A1381110AC026
:100ED000AA94AA20D9F161E070E080E090E00E943D
:100EE000AF13EECF282F30E0C217D3070CF48C2FAE
:100EF0009FB7F8948092E9002091E80025FF1DC07B
:100F0000282F30E0C21BD30BF701815020F0419114
:100F10004093F100FACFE20EF31EBB2019F090923D
:100F2000E8000AC08091E80085FD07C09092E800C3
:100F3000BB24B394209709F0B12C9FBFC1CF5D981B
:100F400084E6809399011016110644F081E090E048
:100F5000F6019383828380E090E001C0C801DF91B5
:100F6000CF911F910F91FF90EF90DF90CF90BF90A6
:100F7000AF909F908F9008950E948A1390E00895FB
:100F80000F931F93CF93DF931F92CDB7DEB78C01E2
:100F9000FC018485958597FF0EC0CE0101960E94C5
:100FA0005C13019719F4898190E002C08FEF9FEFE5
:100FB000F80195878487F801848595850F90DF91E6
:100FC000CF911F910F910895CF93DF931F92CDB7CB
:100FD000DEB7FC018485958597FD05C02FEF3FEFB7
:100FE000358724870BC0CE0101960E945C130197C0
:100FF00019F4898190E002C08FEF9FEF0F90DF918D
:10100000CF9108951F920F920FB60F9211248F93D4
:101010009F938091E1009091E100937F9093E10094
:1010200083FF0FC01092E90091E09093EB001092C3
:10103000EC0092E39093ED001092C40198E090933D
:10104000F00082FF20C093E09093E9009091F200BD
:10105000992319F09AE39093E800909199019923CC
:1010600039F090919901915090939901992389F1C8
:101070009091C301992339F09091C30191509093BD
:10108000C301992341F184FF10C08091E2008E7E5C
:1010900081608093E2008091E1008F7E8093E10087
:1010A00080919B018E7E806111C080FF16C080916F
:1010B000E2008E7E80618093E2008091E1008E7E6E
:1010C0008093E10080919B018E7E816080939B01E3
:1010D00004C05D9ACDCF289AD6CF9F918F910F9063
:1010E0000FBE0F901F9018951F920F920FB60F9280
:1010F0001124CF92DF92EF92FF920F931F932F93C1
:101100003F934F935F936F937F938F939F93AF938F
:10111000BF93EF93FF93CF93DF93CDB7DEB76C9779
:10112000DEBFCDBF1092E9008091E80083FFFBC1D4
:1011300068E0CE0145960E944F0582EF8093E8005B
:101140008D8987FF05C09091E80090FFFCCF03C018
:101150009EEF9093E800982F907609F0C6C09E8984
:101160004F89588D2F89F88C91110CC0803829F443
:1011700080919C018093F10002C01092F1001092C6
:10118000F10045C1913051F4811141C14130510507
:1011900009F03DC180919C018D7F0BC0933061F4BB
:1011A000811135C14130510509F031C180919C0157
:1011B000826080939C012BC1953049F48091E800B6
:1011C00080FFFCCF822F80688093E30020C196309F
:1011D00009F05EC00B8D1C8D22E01092E900109288
:1011E000970110929601F21232C01092950110925E
:1011F00094010E94040799E0BE016F5F7F4FDB01FD
:10120000E92F1D92EA95E9F79983FA8291E09E838E
:1012100090EA98879AEF99872091960130919701EB
:10122000275F3F4F3C832B838D831092E900109200
:10123000970110929601109395010093940149E053
:1012400050E080E00E9428050E940407E0C010934F
:101250009501009394010E949B13DC0112960D915D
:101260001C9113970115110509F4BBC0D801ED912C
:10127000FC910480F581E02DBE016B5E7F4FC801BB
:101280000995009709F0C7C0F80100851185EACFDC
:10129000973009F445C1983021F481E08093F10042
:1012A000B6C0993009F0B3C0837009F039C1E3E1E9
:1012B000F1E081E031E096E32081211109C08EE761
:1012C0008093EA001092EA008F898093C4019FC046
:1012D0008093E9003093EB0021912093EC009093F0
:1012E000ED008F5F873041F7EACF8B8D9C8D109298
:1012F000E9001092970110929601909395018093C6
:101300009401898D811153C08E899D89913A49F448
:10131000813209F005C147E050E064E071E080E00F
:10132000BBC0913209F0FCC0833269F48F89988D7B
:10133000A0E0B0E08093000190930101A09302012E
:10134000B093030164C0803269F48091E80082FFA9
:10135000FCCF67E084E091E00E944F058BEF809323
:10136000E80055C0823209F052C08F8980930B018A
:10137000EEEFFFE7859194918B3F9C4D19F0E0E0F3
:10138000F8E002C0EEEFFAE08091040190910501CF
:10139000A0910601B0910701803B9440A105B105E1
:1013A00009F09EC080910B0180FF79C099C00E9416
:1013B0009B13FC01028113810115110509F4B0C0D2
:1013C000D801ED91FC910190F081E02DBE016B5EA2
:1013D0007F4FC801099581111AC0F8010085118558
:1013E000EBCFF1E0FF1609F44EC0F3E0FF1298C016
:1013F0008F89882309F44AC0823089F440E867E085
:1014000080ED91E00E94F304882309F489C08EEFF7
:101410008093E80088C018161906CCF381C081308B
:1014200029F440E86BE084EC91E0ECCF833009F0E4
:1014300077C00E949B13DC011296ED90FC901397ED
:101440008E010F5F1F4F6801E114F10479F0D7019D
:10145000ED91FC910680F781E02DB801C701099557
:10146000080F111DF701E084F184EECFD8011C9222
:10147000F60101900020E9F73197BF016C197D0951
:1014800040E0C601BFCF62EB71E002C06EEA71E0DE
:10149000FB01449150E080E80E942805B8CFEE3F60
:1014A0002AE0F20751F0808191818737A7E79A07F8
:1014B00021F09093FF0A8093FE0A87E797E79183D4
:1014C000808380916000809398019BE088E10FB653
:1014D000F894A895809360000FBE9093600097CF1A
:1014E000808191818737974709F091CFA8958091A6
:1014F0006000886180936000809198018093600013
:10150000EE3FBAE0FB0739F08091FE0A9091FF0AA6
:10151000918380837CCF1092FF0A1092FE0A77CFCE
:1015200081E28093EB006C960FB6F894DEBF0FBE9D
:10153000CDBFDF91CF91FF91EF91BF91AF919F917F
:101540008F917F916F915F914F913F912F911F915B
:101550000F91FF90EF90DF90CF900F900FBE0F9004
:101560001F901895CF92DF92EF92FF920F931F93E7
:10157000CF93DF930E94E706811520E8920761F47C
:10158000809171008D7F8093710010929100469838
:1015900047981092A4018BC021E02093A4018130D0
:1015A00020E8920751F480919F019091A0019093BF
:1015B000A2018093A1010E94E70697FD05C020913A
:1015C0009D01222309F43FC020919E0121113BC0BF
:1015D00021E020938E01EC01DF77209769F481E010
:1015E00080938F0146983FE9C32E3FE0D32EE12C34
:1015F000F12CCAEFD0E014C08E0120E030E060E4AE
:1016000072E48FE090E0A90198010E947D186901C1
:101610007A0181E0C81AD108E108F10810928F011F
:10162000E0912302F09124020995811103C081E029
:1016300080938F0180918E018823B9F180918F0171
:10164000811133C003C010928E01C5CF46992DC0C1
:10165000479A0E94E706009771F09C01DE010E9404
:10166000F518DC01CB0129E0B595A79597958795ED
:101670002A95D1F703C08FEF9FEFDC011092900005
:101680002AE020939100D0929900C0929800809314
:10169000900190939101A0939201B0939301809156
:1016A000710082608093710002C04798D2CFDF91B1
:1016B000CF911F910F91FF90EF90DF90CF90089501
:1016C0001F920F920FB60F9211242F933F934F93B7
:1016D0005F936F937F938F939F93AF93BF93EF939A
:1016E000FF938091900190919101A0919201B0910E
:1016F0009301892B8A2B8B2B81F180918F01811192
:101700000BC098B180E4892788B980918E01882325
:1017100019F088B1805888B9809190019091910119
:10172000A0919201B0919301181619061A061B0692
:10173000B4F48091900190919101A0919201B091A7
:1017400093010197A109B1098093900190939101B0
:10175000A0939201B093930102C00E94B20AFF913C
:10176000EF91BF91AF919F918F917F916F915F9119
:101770004F913F912F910F900FBE0F901F90189592
:10178000BC0180E090E00C94AF138FB18095807F16
:10179000669B88601C9B846008958EBD00000DB41C
:1017A00007FEFDCF0895089580E090E00895FC01C4
:1017B000E40FF11DAF011E161F06C4F58038910518
:1017C000ACF597FF02C080E090E04138510514F07D
:1017D00040E850E0481BFB0177FD379633E0F59574
:1017E000E7953A95E1F7F695FE2FEE27F795E79501
:1017F000E80FF91FEB5DFD4F6770772781E090E000
:1018000001C0880F6A95EAF7382F222341F0213072
:1018100069F4415058F08081832B8193FACF8095F1
:10182000415020F0908198239193FACF0895E5E2FA
:10183000F2E080E0A0E0B8E000800EBC8111012C55
:101840001197A0FDFDCF0192B9F70DB4089580382E
:101850009105B8F460347105A0F490E121E061FDD8
:1018600024E060FD220F62FD2295687F969FD001E3
:101870001124A80FAB5DBD4F8C91822B40FF8227B6
:101880008C9308952F923F924F925F926F927F9226
:101890008F929F92AF92BF92CF92DF92EF92FF9280
:1018A0000F931F93CF93DF93CDB7DEB728970FB673
:1018B000F894DEBF0FBECDBF603871050CF072C06A
:1018C000403451050CF06EC0CB0135E0C39E800D55
:1018D000911D1124181619060CF064C0AC2CB12C03
:1018E000CA01E8E0CE9E800D911D1124181619063C
:1018F0000CF058C0EA8209835E834D83F5E02F9F88
:101900009001112478876F83C901825F9B4F3C014E
:10191000512CF3014490F5E05F1201C0412C0D8180
:101920001E8188E0282E8F8198858A0D9B1D9C83BF
:101930008B8340FE02C0398001C03A80311004C060
:101940009A81E9819E17D9F0EF80F8846801CA0C6A
:10195000DB1C8B819C81E816F90689F048018C1408
:101960009D0449F0432DB401C7010E94270C9FEF4D
:10197000891A990AF4CFEFEFEE1AFE0AEACF4694DD
:101980002A940A0D1B1D2110D4CF53948F81988562
:101990008A0D9B1D98878F83F30131963F01F6E0F6
:1019A0005F12B7CF28960FB6F894DEBF0FBECDBF3B
:1019B000DF91CF911F910F91FF90EF90DF90CF902B
:1019C000BF90AF909F908F907F906F905F904F905F
:1019D0003F902F900895CF92EF920F93CF93DF9384
:1019E000EC016A3069F42D8989899A8938E0239F4E
:1019F000800D911D11249A8B898B188A1F862EC009
:101A00006D3061F1262F49895A896F857889CD8893
:101A1000EC880B890E94420C2D89422F50E08F8563
:101A2000988936E0239F800D911D1124988B8F8714
:101A30002E89222399F06AEF64039001659F300D8F
:101A4000112420583F4F2817390744F4E881F981C1
:101A50000190F081E02D6AE0CE01099581E090E0EF
:101A6000DF91CF910F91EF90CF900895EF92FF9279
:101A70000F931F93CF93DF93CDB7DEB72C970FB69D
:101A8000F894DEBF0FBECDBF9C016CE070E00E94F9
:101A90001E198B0111278AE1689FF0011124E95D6D
:101AA000FD4FE491CE0101967C018DE0809FA00165
:101AB000819F500D1124D70180E090E0F82FE3368C
:101AC00079F001968D30910551F0ED93FC01E40F12
:101AD000F51FEE0FFF1FE95DFD4FE491EFCFFCE036
:101AE000F0939A01C9016CE070E00E941E1966EA49
:101AF00071E0D7012F2FFF0F330BAD014E195F0996
:101B00004217530734F44D91480FFB014193BF0135
:101B1000F4CF4CE0409F9001419F300D1124820F83
:101B2000931F9093B4018093B3012C960FB6F89451
:101B3000DEBF0FBECDBFDF91CF911F910F91FF9000
:101B4000EF9008957F928F929F92AF92BF92CF9223
:101B5000DF92EF92FF920F931F93CF93DF93CDB756
:101B6000DEB7C25AD1090FB6F894DEBF0FBECDBFA3
:101B70006C014B01742E6CE074E0CE0101965C01A7
:101B80000E94EB1169E074E0CE0107960E94EB1110
:101B900067E074E0CE010D960E94EB1164E074E002
:101BA000CE0143960E94EB1162E074E0CE014996AB
:101BB0000E94EB1160E074E0CE014F960E94EB11A1
:101BC0006DEF73E0CE0185960E94EB116BEF73E031
:101BD000CE018B960E94EB1168EF73E0CE01C196A7
:101BE0000E94EB1166EF73E0CE01C7960E94EB11E5
:101BF00063EF73E0CE01CD960E94EB1161EF73E0CD
:101C0000CE018D5B9F4F0E94EB117E0199E4E90E9E
:101C1000F11C6EEE73E0C7010E94EB116AEE73E0F7
:101C2000C70106960E94EB1167EE73E0C7010C96A0
:101C30000E94EB1163EE73E0C70142960E94EB1124
:101C400060EE73E0C70148960E94EB116DED73E002
:101C5000C7014E960E94EB1169ED73E0C7018496AF
:101C60000E94EB1165ED73E0C7018A960E94EB11AB
:101C700061ED73E0C701C0960E94EB116EEC73E05A
:101C8000C701C6960E94EB116AEC73E0C701CC96BF
:101C90000E94EB1167EC73E0CE0185579F4F0E94C5
:101CA000EB116CE471E0C6010E942C128E01035608
:101CB0001F4F6BE471E0CE0189569F4F711037C002
:101CC0000E942C12C4016CE070E00E941E1926E0F4
:101CD000289FB001299F700D11246A0D7B1DCE0134
:101CE0008F569F4F0E9423129E0129563F4F42E07C
:101CF00050E0BE016F567F4FC8010E943F14C016CE
:101D0000D10621F0B801C6010E940813C8010E9443
:101D1000E611CE018F569F4F0E94E611CE018956E3
:101D20009F4F0E94E6118E010F561F4F1AC00E944E
:101D30002C12C4016CE070E00E941E1926E0289F5E
:101D4000B001299F700D11246E0D7F1DCE018F569D
:101D50009F4F0E9423129E0129563F4F43E050E0BF
:101D6000C8CF06501109C8010E94E6110E151F05C3
:101D7000C1F706501109C8010E94E611A016B1066C
:101D8000C1F7C601CE55DF4F0FB6F894DEBF0FBEC8
:101D9000CDBFDF91CF911F910F91FF90EF90DF901A
:101DA000CF90BF90AF909F908F907F9008952F928B
:101DB0003F924F925F926F927F928F929F92AF92DB
:101DC000BF92CF92DF92EF92FF920F931F93CF9328
:101DD000DF93CDB7DEB762970FB6F894DEBF0FBEC4
:101DE000CDBF6CE471E0CE0107960E942C12809169
:101DF000B501811103C015E0212E02C0B3E02B2EE6
:101E00006CE471E0CE010D960E942C1240E350E08C
:101E10006DE471E0CE010D960E94AE118091B30188
:101E20009091B4010E94360D10924A061092490614
:101E300010924C0610924B0682E292E00E94ED1244
:101E4000F8E18F2E912CA12CB12CACE06A2E712CD4
:101E50008091B3019091B401B3010E941E19CB018E
:101E6000880F991F680F791F6A0D7B1D89899A89D0
:101E70006817790748F48D859E85009729F0FC0145
:101E8000E60FF71F208101C020E0CC24C394E12C91
:101E900001E040E050E0B4018AE396E00E94420C89
:101EA0008FEFA81AB80AE6E08E0E911CF3E0AF1689
:101EB000B10471F68CE290E090934A068093490653
:101EC00010924C0610924B068FE192E00E94ED12A8
:101ED0006091A601062E000C770B40E0CE01019622
:101EE0000E94A20DCE0101960E944113CE010196DF
:101EF0000E94E6118BE192E00E94ED126091A60132
:101F0000062E000C770B41E0CE0101960E94A20D37
:101F1000CE0101960E944113CE0101960E94E61166
:101F200000E010E05AE2E52EF12C40E0B701C801D4
:101F30000E94270C8FEFE81AF80AE8E3EE16F10486
:101F4000A1F70F5F1F4F0038110561F73DE0A32E89
:101F5000B12C00E010E0312C4CE0442E512C021545
:101F600013050CF070C00115110519F082E090E026
:101F700002C080E090E06C01CA0CDB1C3801660CEA
:101F8000771C96EA892E91E0992EEE24E394F12CA9
:101F90000230110571F42091B50181E090E021300B
:101FA00051F0223011F080E090E0919581959109F7
:101FB00002C080E090E0F0924A06E0924906D0929A
:101FC0004C06C0924B06F40121914F01860D971DDE
:101FD00060919A01062E000C770B0E941E19FC01DD
:101FE000EA55FE4F8081082E000C990B3091A60116
:101FF000831B910937FD9395820F911D27FD9A95BB
:10200000B2010E941E196CE00E940419692F70E051
:1020100040E0CE0101960E94A20DCE0101960E94E1
:102020004113CE0101960E94E611F2E1EF0EF11C80
:102030008FE7E816F10409F0ABCF0F5F1F4FEAE01E
:10204000AE0EB11C8CCFCE010D960E94E611CE01D2
:1020500007960E94E61162960FB6F894DEBF0FBE97
:10206000CDBFDF91CF911F910F91FF90EF90DF9047
:10207000CF90BF90AF909F908F907F906F905F9028
:102080004F903F902F9008958F929F92AF92BF9262
:10209000CF92EF92FF920F931F93CF93DF9300D0D5
:1020A00000D000D0CDB7DEB7182F6CE471E0CE01C0
:1020B00001960E942C124CE050E060E871E0CE01E5
:1020C00001960E94AE118091B501810F83708093BB
:1020D000B50190E0E5E2F2E091119FEF00249193C9
:1020E0009193919391930394D1F710924C0610928F
:1020F0004B0610924A0610924906833009F460C0DC
:1021000021E040E869E070E080E090E00E94D70BB9
:1021100021E040E866E170E080E090E00E94D70BAB
:1021200089E690E0909333068093320690933106CF
:102130008093300685E090E09093350680933406D6
:102140008091B601811103C08BE491E002C08EE75B
:1021500091E00E944A139EE6892E912CA12CB12C6D
:102160008091B501950143E0849F200D311D11241C
:10217000C9012D813E818217930750F429813A814C
:102180002115310529F0F901E80FF91F208101C05F
:1021900020E0CC24C394EE24E39400E040E050E03F
:1021A000B4018AE396E00E94420C8FEFA81AB80AA5
:1021B00026E0820E911C33E0A316B10489F611C00B
:1021C00001E020E440E860E070E080E090E00E9400
:1021D00094122CE34CE762E070E082E090E00E9411
:1021E00094128091B501833038F41092B4011092AA
:1021F000B3010E94D70E60C0833009F05DC088E053
:10220000E82EF12CF0924A06E09249068AE090E02E
:1022100090934C0680934B0602E000934F0689E1B1
:1022200092E00E94ED1211E010934F0683E192E0DC
:102230000E94ED1200934F0681E192E00E94ED12A0
:1022400010934F068EE092E00E94ED1210934F061D
:1022500089E092E00E94ED12F0924A06E09249066F
:102260008EE190E090934C0680934B0684E092E0E0
:102270000E94ED1286EF91E00E94ED12F0924A0664
:10228000E092490688E290E090934C0680934B06DA
:1022900082EE91E00E94ED12F0924A06E092490629
:1022A00082E390E090934C0680934B0688ED91E09A
:1022B0000E94ED1210934F06CE0101960E94E61186
:1022C00026960FB6F894DEBF0FBECDBFDF91CF913B
:1022D0001F910F91FF90EF90CF90BF90AF909F9084
:1022E0008F90089508950E94331B0F931F93CF93EF
:1022F000DF93EC0188819981009729F02A813B8145
:102300002617370788F48B016F5F7F4F0E946D1A85
:10231000009761F0998388831B830A832C813D8118
:10232000232B11F4FC01108281E001C080E0DF91D9
:10233000CF911F910F910895CF93DF93EC01888186
:102340009981009711F00E94E419198218821D8268
:102350001C821B821A82DF91CF910895EF92FF9227
:102360000F931F93CF93DF93EC017B018A01BA0196
:102370000E947511811104C0CE010E949C1107C0FA
:102380001D830C83B701888199810E94411BCE0176
:10239000DF91CF911F910F91FF90EF900895CF9310
:1023A000DF93EC01FB018617970761F06081718173
:1023B0006115710529F0448155810E94AE1102C05A
:1023C0000E949C11CE01DF91CF910895FC01808184
:1023D00091810C94E419EF92FF920F931F93CF9386
:1023E000DF93EC01198218821B821A821D821C82E3
:1023F0006115710509F18B01CB010E946C187C01FC
:10240000BC01CE010E947511811109C0CE01DF917E
:10241000CF911F910F91FF90EF900C949C11FD8232
:10242000EC82B80188819981DF91CF911F910F9142
:10243000FF90EF900C946518DF91CF911F910F9151
:10244000FF90EF900895FC01118210821382128296
:10245000158214820C94CF11FC0111821082138218
:102460001282158214826115710551F0FB010190F1
:102470000020E9F73197AF01461B570B0C94AE11C2
:1024800008953FB7F8948091560690915706A09111
:102490005806B091590626B5A89B05C02F3F19F0E4
:1024A0000196A11DB11D3FBFBA2FA92F982F8827D4
:1024B000820F911DA11DB11DBC01CD0142E0660F2F
:1024C000771F881F991F4A95D1F70895EF92FF92C1
:1024D0000F931F93CF93DF936115710511F480E083
:1024E0001CC041155105C1F07B01EC018C819D811F
:1024F0008A01080F191FB801CE010E9475118823A7
:1025000071F3288139818C819D81B701820F931FDE
:102510000E94411B1D830C8381E0DF91CF911F91AD
:102520000F91FF90EF9008958F929F92AF92BF927C
:10253000CF92DF92EF92FF920F931F93CF93DF938F
:102540007C01EB01142FD22E6034710518F4202F7A
:102550000E94D70B4E018D0C911CB4016150710982
:102560006034710528F4202F412FC7010E94D70B3A
:10257000D7FF02C0C0E0D0E05E01640181E48816AC
:1025800091041CF080E4C82ED12CAC14BD044CF492
:10259000402FB501C7010E94270C8FEFA81AB80A77
:1025A000ECCFE10EF11C81E0E81AF108CC15DD0555
:1025B0003CF4402FBE01C7010E94270C2196F6CFA4
:1025C000DF91CF911F910F91FF90EF90DF90CF900F
:1025D000BF90AF909F908F9008950F931F93CF93CC
:1025E000DF938C01C0E0D0E0F801EC0FFD1F649197
:1025F000662341F08AE396E00E94EB0C892B11F0F0
:102600002196F2CFCE01DF91CF911F910F910895C6
:102610000F931F93CF93DF938C01EB01FC0180811B
:1026200091810097B1F0688179816115710579F028
:10263000428153812C813D814217530740F00E9413
:10264000411B8C819D81F8019583848313C00E9476
:10265000E41988819981F801918380838A819B8123
:10266000938382838C819D819583848319821882D0
:102670001B821A821D821C82DF91CF911F910F91C4
:102680000895FC0144815581608171818AE396E05F
:102690000C945C05009769F0FC0101900020E9F7BB
:1026A0003197AF01481B590BBC0185E296E00C94B1
:1026B0005C0580E090E008952091C401211103C0E1
:1026C0008FEF9FEF08955FB7F89422E02093E90021
:1026D0002091F20030E01216130614F421E030E0ED
:1026E000422FFC0184E6415038F028988093C301C2
:1026F0009091F1009193F7CF2115310521F0809150
:10270000F200882319F05FBFC90108958BE680931A
:10271000E800F9CF2FB7F89483E08093E900909117
:10272000E800892F807295FF04C09091F20080E448
:10273000891B2FBF089580915E0681110DC082E034
:1027400080935A0684E080935B0610925D06109297
:102750005C0681E080935E068AE596E008958F929C
:102760009F92AF92BF92CF92DF92EF92FF926B0156
:102770007C010E9441124B015C01C114D104E104AF
:10278000F104F1F00E944112DC01CB018819990992
:10279000AA09BB09883E9340A105B10570F321E069
:1027A000C21AD108E108F10888EE880E83E0981E6D
:1027B000A11CB11CC114D104E104F10419F7DDCF4F
:1027C000FF90EF90DF90CF90BF90AF909F908F9051
:1027D00008952FB7F8946091520670915306809136
:1027E0005406909155062FBF08951F920F920FB671
:1027F0000F9211242F933F938F939F93AF93BF9387
:102800008091520690915306A0915406B0915506BE
:102810003091510623E0230F2D3720F40196A11D9E
:10282000B11D05C026E8230F0296A11DB11D2093FE
:1028300051068093520690935306A0935406B0938A
:1028400055068091560690915706A0915806B09172
:1028500059060196A11DB11D809356069093570607
:10286000A0935806B0935906BF91AF919F918F9155
:102870003F912F910F900FBE0F901F9018958F9240
:102880009F92AF92BF92CF92DF92EF92FF920F93FF
:102890001F93CF93DF93CDB7DEB72C970FB6F89485
:1028A000DEBF0FBECDBF7C016B014A0159016CE454
:1028B00071E0CE0107960E942C12F6010481158169
:1028C0000815190524F5BE01695F7F4FCE010196F9
:1028D0000E942312F5014481558160817181CE01EE
:1028E00001960E946612811104C0CE0101960E94D9
:1028F0009C11BE016F5F7F4FCE0107960E94CF11E2
:10290000CE0101960E94E6110F5F1F4FD9CFB6018D
:10291000CE0101960E9423124B855C856F817885DC
:10292000CE0101960E946612811104C0CE0101966B
:102930000E949C11BE016F5F7F4FC7010E9423124E
:10294000CE0101960E94E611CE0107960E94E61183
:10295000C7012C960FB6F894DEBF0FBECDBFDF9136
:10296000CF911F910F91FF90EF90DF90CF90BF908C
:10297000AF909F908F9008950F931F93CF93DF9305
:10298000EC0181E090E00E94751880FF2EC08AE083
:1029900090E00E9475189FEF980F9E3F30F522E35C
:1029A00030E0388B2F8728E330E03A8B298B0BE01F
:1029B00010E0E881F9810190F081E02D682FCE01CF
:1029C0000995C8010E9475180F5F1F4F013111054D
:1029D00081F7CE0104960E94170C88EE93E0DF91F8
:1029E000CF911F910F910C94C00BDF91CF911F914C
:1029F0000F91089504970C94BC14789484B5826068
:102A000084BD84B5816084BD85B5826085BD85B592
:102A1000816085BD80916E00816080936E00109210
:102A2000810080918100826080938100809181008B
:102A3000816080938100809180008160809380001C
:102A400080919100826080939100809191008160DB
:102A5000809391008091900081608093900080919C
:102A6000C10084608093C1008091C1008260809326
:102A7000C1008091C10081608093C1008091C3003A
:102A800081608093C3008091C00082608093C00009
:102A90008091C20081608093C20080917A0084603E
:102AA00080937A0080917A00826080937A0080918E
:102AB0007A00816080937A0080917A0080688093A8
:102AC0007A001092C40110929C0110929B01809197
:102AD000D70081608093D70080EA8093D80089B5C1
:102AE000806189BD89B5826089BD09B400FEFDCFD2
:102AF00061E070E080E090E00E94AF138091D80028
:102B00008F7C80618093D8008091E000807F8093EB
:102B1000E0008091E1008E7E8093E1008DE0809363
:102B2000E200559A209A81EC80937C0085B1806FF9
:102B300085B984B1877E84B984B1876E84B95E9A81
:102B40005F988AB1806D8AB9769A6E9881B3806FEA
:102B500081BB899880B38D7080BB80E58CBD81E09E
:102B60008DBD85E090E00E94C00B5F9A85E090E00B
:102B70000E94C00B5E985C98CEE0D9E0FE01849183
:102B80000E94CD0B2196F9E0CB31DF07B9F75C9AB3
:102B900081E8809364008091650081608093650086
:102BA0008FEF9FEF9093D2018093D10181E28093C8
:102BB000450680E00E9444108EE396E00E94170CC8
:102BC0008091B3019091B4010E94360D10929E0144
:102BD00010929D0181E080939D010E94E913609312
:102BE000BF017093C0018093C1019093C20179E647
:102BF000A72EB12CE5E18E2EE2E09E2E5CE0552E54
:102C00006CE0E62EF12C80914306809344060E94EE
:102C1000C50B809343060E94C50BC82FD0E080915E
:102C2000BC019091BD01C817D90709F05CC0C8303C
:102C3000D10509F058C00E94E9130091B801109124
:102C4000B9012091BA013091BB01DC01CB01801B9D
:102C5000910BA20BB30B883B9B40A105B10508F477
:102C600042C09091B60181E089278093B601B0926D
:102C70003306A0923206B0923106A0923006E5E00B
:102C8000F0E0F0933506E0933406882329F08EE7D0
:102C900091E00E944A1316C009E610E045E0C42EF8
:102CA000D12C40E0B601C8010E94270CFFEFCF1ADB
:102CB000DF0A29E0C216D104A1F70F5F1F4F0D36BE
:102CC000110561F78EE396E00E94170C81E0809376
:102CD000B7010E94E9136093B8017093B901809322
:102CE000BA019093BB018091440683FF1AC0809182
:102CF000430683FD16C00E94E9130091B8011091AC
:102D0000B9012091BA013091BB01DC01CB01801BDC
:102D1000910BA20BB30B883B9B40A105B10508F4B6
:102D2000D9C08091BC019091BD01C817D90709F4A1
:102D300093C0209709F490C01092BE015C9886EA77
:102D40000E94CD0B5C9AC034D105A9F48091B501E5
:102D5000833008F046C12091B3013091B401C9011C
:102D6000B7010E941E19569EF001579EF00D1124C6
:102D7000C901019617C0C032D10501F58091B50196
:102D8000833008F02EC12091B3013091B401C90104
:102D9000B7010E941E19569EF001579EF00D112496
:102DA000C9010B96B7010E941E198E0F9F1F9093A9
:102DB000B4018093B3010E94D70E13C1C038D1056E
:102DC00081F48091B5018330A0F58091B301909199
:102DD000B401B7010E941E19CB01019660E170E0B9
:102DE00011C0C031D105E1F48091B501833008F5FF
:102DF0008091B3019091B401B7010E941E19CB01DB
:102E00000F96BE010E941E19589E9001599E300DCA
:102E100011243093B4012093B3010E94D70E09C04E
:102E2000C430D10509F0DDC08091B501882309F4D3
:102E300061C0D093BD01C093BC010E94E9136093AF
:102E4000BF017093C0018093C1019093C2018EE3D2
:102E500096E00E94170C08C00E94C50B811104C0A7
:102E60001092BD011092BC010E94E9130091BF01B4
:102E70001091C0012091C1013091C201DC01CB0150
:102E8000801B910BA20BB30B81319742A105B105B9
:102E9000C8F09091BE0181E089278093BE01811125
:102EA00002C086EA01C087EA5C980E94CD0B5C9A5A
:102EB0000E94E9136093BF017093C0018093C10128
:102EC0009093C20120E030E0232B09F49CCE0E94B5
:102ED000000094CE8091B701811123CF81E00E9440
:102EE0004410D093BD01C093BC018EE396E00E94D4
:102EF000170C17CF8091A601652D0E941019E92F9C
:102F0000EE0FFF0BE55EF64F259034908091B601F1
:102F1000811105C03E9A3F9A81E08093A50136EA6F
:102F2000632E31E0732EC12CD12CF30181913F012E
:102F3000652D0E941019E92FEE0FFF0BE55EF64F8D
:102F4000859194918215930514F4880F991F20910F
:102F500071002D7F209371001092A3019092A20125
:102F60008092A1019092A00180929F0190931602FD
:102F70008093150228EE33E0309318022093170255
:102F800080E090E890931A02809319020E94B20A9E
:102F900001E02BE042E16BE070E0C6010E94941278
:102FA0008EE396E00E94170C8091A4018111FCCF62
:102FB00000E02BE042E16BE070E0C6010E94941259
:102FC0008EE396E00E94170C92E1C90ED11CEEE749
:102FD000CE16D10409F0A9CF1092A5013E983F98D2
:102FE00028CFC830D10509F024CF0E94E91360939F
:102FF000B8017093B9018093BA019093BB0110920C
:10300000B70117CFE5ECF1E01382128288EE93E06E
:10301000A0E0B0E084839583A683B7838DE191E03F
:10302000918380838FEF9FEF95878487EAE3F6E0B3
:10303000138212821186128680E18387108617829E
:1030400015868BE391E09183808389E491E09583F9
:103050008483108A1786128A118A81E0838B148AEE
:10306000858B168A21E037E03093240220932302D7
:1030700020E030E8309322022093210246983E9AC5
:1030800047983F9AE5E2F6E0138212822FE231E0A0
:103090003183208325E232E03683258320E830E047
:1030A0003087278320E430E03287218795E0948BB6
:1030B000838B16861586108A17861486138681E000
:1030C00090E0928B818B14820895FB01DC010590C6
:1030D0000D920020E1F70895FC0105900020E9F72A
:1030E000809590958E0F9F1F0895F999FECF92BD00
:1030F00081BDF89A992780B50895052E97FB1EF497
:1031000000940E94941857FD07D00E94D31807FC22
:1031100003D04EF40C949418509540953095219519
:103120003F4F4F4F5F4F08959095809570956195F3
:103130007F4F8F4F9F4F08952F923F924F925F92F4
:103140006F927F928F929F92AF92BF92CF92DF92B7
:10315000EF92FF920F931F93CF93DF93CDB7DEB71C
:10316000CA1BDB0B0FB6F894DEBF0FBECDBF0994B0
:103170002A88398848885F846E847D848C849B8407
:10318000AA84B984C884DF80EE80FD800C811B8115
:10319000AA81B981CE0FD11D0FB6F894DEBF0FBE44
:1031A000CDBFED010895A1E21A2EAA1BBB1BFD01A4
:1031B0000DC0AA1FBB1FEE1FFF1FA217B307E40716
:1031C000F50720F0A21BB30BE40BF50B661F771F6E
:1031D000881F991F1A9469F760957095809590954E
:1031E0009B01AC01BD01CF010895A29FB001B39F27
:1031F000C001A39F700D811D1124911DB29F700D00
:10320000811D1124911D0895991B79E004C0991F17
:10321000961708F0961B881F7A95C9F78095089530
:1032200087FB082E062687FD819567FD61950E9424
:1032300004190EF4919507FC8195089597FB072ECC
:1032400016F4009407D077FD09D00E94321907FCCC
:1032500005D03EF4909581959F4F089570956195A6
:103260007F4F0895AA1BBB1B51E107C0AA1FBB1FBC
:10327000A617B70710F0A61BB70B881F991F5A9502
:10328000A9F780959095BC01CD010895EE0FFF1F21
:103290000590F491E02D09940F931F93CF93DF9342
:1032A0008230910510F482E090E0E0916806F091A0
:1032B000690620E030E0A0E0B0E0309719F14081ED
:1032C00051810281138148175907C8F08417950767
:1032D00069F4109731F012960C93129713961C9381
:1032E00027C0009368061093690622C02115310596
:1032F00019F04217530718F49A01BD01EF01DF01DD
:10330000F801DBCF21153105F9F0281B390B2430EA
:10331000310580F48A819B816115710521F0FB01E3
:103320009383828304C09093690680936806FE01AC
:10333000329644C0FE01E20FF31F81939193225015
:103340003109398328833AC0209166063091670697
:10335000232B41F420910E0130910F013093670629
:103360002093660620910C0130910D012115310545
:1033700041F42DB73EB74091100150911101241B2B
:10338000350BE0916606F0916706E217F307A0F4AB
:103390002E1B3F0B2817390778F0AC014E5F5F4FAB
:1033A0002417350748F04E0F5F1F50936706409370
:1033B00066068193919302C0E0E0F0E0CF01DF91D7
:1033C000CF911F910F910895CF93DF93009709F448
:1033D00081C0FC01329713821282A0916806B091DD
:1033E0006906109781F420813181820F931F20910B
:1033F0006606309167062817390751F5F09367067E
:10340000E093660667C0ED0120E030E0CE17DF07ED
:1034100040F44A815B819E0141155105F1F0EA01BA
:10342000F5CFD383C28340815181840F951FC81784
:10343000D90759F488819981840F951F0296918349
:1034400080838A819B81938382832115310529F4AE
:10345000F0936906E09368063DC0E901FB83EA83C7
:1034600049915991C40FD51FEC17FD0761F4808174
:103470009181840F951F0296E90199838883828147
:1034800093819B838A83E0E0F0E012968D919C917A
:103490001397009719F0FD01DC01F7CF8D919C91F6
:1034A00011979D012E5F3F4F820F931F209166065B
:1034B000309167062817390769F4309729F410927C
:1034C00069061092680602C013821282B0936706E2
:1034D000A0936606DF91CF910895A0E0B0E0E3E706
:1034E000FAE10C94A018EC01009721F4CB010E94A2
:1034F0004C19B4C0FC01E60FF71F9C0122503109A2
:10350000E217F30708F4A8C0D9010D911C91119797
:1035100006171707B0F00530110508F49BC0C80165
:1035200004978617970708F495C002501109061BE7
:10353000170B019311936D937C93CF010E94E419B3
:1035400089C05B01A01AB10A4C01800E911EA091A6
:103550006806B0916906612C712CE12CF12C109752
:1035600009F446C08D919C911197A815B905B1F544
:103570006C0142E0C40ED11CCA14DB0478F14C018A
:103580008A189B08640142E0C40ED11C1296BC90BC
:1035900012971396AC91B5E0CB16D10440F0B282ED
:1035A000A38391828082D9016D937C9309C00E5FC1
:1035B0001F4F800F911FF90191838083EB2DFA2F0C
:1035C000E114F10431F0D7011396FC93EE931297B6
:1035D00041C0F0936906E09368063CC0681679061E
:1035E00008F43C017D0112960D90BC91A02DB7CF3F
:1035F000809166069091670688169906E1F4661632
:103600007706C8F480910C0190910D01009741F468
:103610008DB79EB74091100150911101841B950BFD
:10362000E817F907C8F4F0936706E0936606F90116
:10363000718360830FC0CB010E944C197C010097FD
:1036400059F0A801BE010E94381BCE010E94E41966
:10365000C70104C0CE0102C080E090E0CDB7DEB764
:10366000EEE00C94BC1881E090E0F8940C94481BB8
:10367000FB01DC0102C001900D9241505040D8F78F
:103680000895FB01DC0101900D920020E1F70895FF
:04369000F894FFCFDC
:10369400FFFFFFFF00E100000000000000006A06D9
:1036A400800000C180810000000000000086053613
:1036B40007BC079C05A705E407C0070000000040FD
:1036C400065C05D40B721100000000EB0C5C05D401
:1036D4000B7211BC14FCFF0000FA1420004D414A87
:1036E4004D494E444F524652494C49444D49534525
:1036F4004F4C4C4F434E41504E414D4D494D4D4919
:10370400414D41414F5249554E47454E49004D00A8
:0E37140041434341554D44494D494E46000046
:00000001FF
